{
  "contractName": "UserID",
  "abi": [
    {
      "constant": true,
      "inputs": [],
      "name": "UID_Count",
      "outputs": [
        {
          "name": "",
          "type": "uint256"
        }
      ],
      "payable": false,
      "stateMutability": "view",
      "type": "function"
    },
    {
      "constant": true,
      "inputs": [
        {
          "name": "",
          "type": "uint256"
        }
      ],
      "name": "UID_Map",
      "outputs": [
        {
          "name": "driverId",
          "type": "uint256"
        },
        {
          "name": "fullName",
          "type": "string"
        },
        {
          "name": "dob",
          "type": "string"
        },
        {
          "name": "driverId_endDate",
          "type": "string"
        },
        {
          "name": "numOfInfractions",
          "type": "uint256"
        },
        {
          "name": "passportId",
          "type": "string"
        }
      ],
      "payable": false,
      "stateMutability": "view",
      "type": "function"
    },
    {
      "constant": false,
      "inputs": [
        {
          "name": "id",
          "type": "uint256"
        },
        {
          "name": "_name",
          "type": "string"
        },
        {
          "name": "_dob",
          "type": "string"
        },
        {
          "name": "_exp_date",
          "type": "string"
        },
        {
          "name": "_infractions",
          "type": "uint256"
        },
        {
          "name": "_passID",
          "type": "string"
        }
      ],
      "name": "addUID2",
      "outputs": [],
      "payable": false,
      "stateMutability": "nonpayable",
      "type": "function"
    }
  ],
  "bytecode": "0x608060405234801561001057600080fd5b5061082a806100206000396000f300608060405260043610610057576000357c0100000000000000000000000000000000000000000000000000000000900463ffffffff16806333f40e0d1461005c5780633d91aa4a14610087578063e6217c3b146101d6575b600080fd5b34801561006857600080fd5b506100716103ce565b6040518082815260200191505060405180910390f35b34801561009357600080fd5b506101d460048036038101908080359060200190929190803590602001908201803590602001908080601f0160208091040260200160405190810160405280939291908181526020018383808284378201915050505050509192919290803590602001908201803590602001908080601f0160208091040260200160405190810160405280939291908181526020018383808284378201915050505050509192919290803590602001908201803590602001908080601f016020809104026020016040519081016040528093929190818152602001838380828437820191505050505050919291929080359060200190929190803590602001908201803590602001908080601f01602080910402602001604051908101604052809392919081815260200183838082843782019150505050505091929192905050506103d4565b005b3480156101e257600080fd5b50610201600480360381019080803590602001909291905050506104bd565b604051808781526020018060200180602001806020018681526020018060200185810385528a818151815260200191508051906020019080838360005b8381101561025957808201518184015260208101905061023e565b50505050905090810190601f1680156102865780820380516001836020036101000a031916815260200191505b50858103845289818151815260200191508051906020019080838360005b838110156102bf5780820151818401526020810190506102a4565b50505050905090810190601f1680156102ec5780820380516001836020036101000a031916815260200191505b50858103835288818151815260200191508051906020019080838360005b8381101561032557808201518184015260208101905061030a565b50505050905090810190601f1680156103525780820380516001836020036101000a031916815260200191505b50858103825286818151815260200191508051906020019080838360005b8381101561038b578082015181840152602081019050610370565b50505050905090810190601f1680156103b85780820380516001836020036101000a031916815260200191505b509a505050505050505050505060405180910390f35b60015481565b60016000815480929190600101919050555060c0604051908101604052806001548152602001868152602001858152602001848152602001838152602001828152506000806001548152602001908152602001600020600082015181600001556020820151816001019080519060200190610450929190610759565b50604082015181600201908051906020019061046d929190610759565b50606082015181600301908051906020019061048a929190610759565b506080820151816004015560a08201518160050190805190602001906104b1929190610759565b50905050505050505050565b6000602052806000526040600020600091509050806000015490806001018054600181600116156101000203166002900480601f01602080910402602001604051908101604052809291908181526020018280546001816001161561010002031660029004801561056f5780601f106105445761010080835404028352916020019161056f565b820191906000526020600020905b81548152906001019060200180831161055257829003601f168201915b505050505090806002018054600181600116156101000203166002900480601f01602080910402602001604051908101604052809291908181526020018280546001816001161561010002031660029004801561060d5780601f106105e25761010080835404028352916020019161060d565b820191906000526020600020905b8154815290600101906020018083116105f057829003601f168201915b505050505090806003018054600181600116156101000203166002900480601f0160208091040260200160405190810160405280929190818152602001828054600181600116156101000203166002900480156106ab5780601f10610680576101008083540402835291602001916106ab565b820191906000526020600020905b81548152906001019060200180831161068e57829003601f168201915b505050505090806004015490806005018054600181600116156101000203166002900480601f01602080910402602001604051908101604052809291908181526020018280546001816001161561010002031660029004801561074f5780601f106107245761010080835404028352916020019161074f565b820191906000526020600020905b81548152906001019060200180831161073257829003601f168201915b5050505050905086565b828054600181600116156101000203166002900490600052602060002090601f016020900481019282601f1061079a57805160ff19168380011785556107c8565b828001600101855582156107c8579182015b828111156107c75782518255916020019190600101906107ac565b5b5090506107d591906107d9565b5090565b6107fb91905b808211156107f75760008160009055506001016107df565b5090565b905600a165627a7a72305820b27209000213e3b300666f28290e23a55c605bac0d39e7a058714c373ed9d8db0029",
  "source": "pragma solidity 0.4.24;\r\n\r\ncontract UserID {\r\n    // Read/write candidate\r\n\r\n    //Model of UserID\r\n    struct UID_Struct {\r\n      uint driverId;\r\n      string fullName;\r\n      string dob;\r\n      string driverId_endDate;\r\n      uint numOfInfractions;\r\n      string passportId;\r\n\r\n    }\r\n\r\n    // Array type that stores UID struct type with uint value type as key value(driverId /or id#)\r\n    mapping(uint => UID_Struct) public UID_Map; //solidity generates UID function for us.\r\n    // Constructor\r\n\r\n    //Keep track UID's made because you cannot iterate over or count how many elements in a mapping\r\n    uint public UID_Count;\r\n\r\n    //function to add candidates\r\n    function addUID (uint id, string _name, string _dob, string _exp_date, uint _infractions, string _passID) private { // _ underscore shows variable is local instead of state\r\n      UID_Count++;\r\n      UID_Map[UID_Count] = UID_Struct(UID_Count, _name, _dob, _exp_date, _infractions, _passID);\r\n    }\r\n\r\n    function addUID2 (uint id, string _name, string _dob, string _exp_date, uint _infractions, string _passID) public { // _ underscore shows variable is local instead of state\r\n      UID_Count++;\r\n      UID_Map[UID_Count] = UID_Struct(UID_Count, _name, _dob, _exp_date, _infractions, _passID);\r\n    }\r\n\r\n    /* function UserID () public {\r\n      addUID(UID_Count,\"Erica Mcbride\", \"01/02/1993\", \"20/02/2030\", 3, \"1278973\");\r\n    } */\r\n\r\n}\r\n",
  "sourcePath": "C:\\Users\\tamuk\\Desktop\\UID\\contracts\\UserID.sol",
  "compiler": {
    "name": "solc",
    "version": "0.4.24+commit.e67f0147.Emscripten.clang"
  },
  "schemaVersion": "2.0.1",
  "updatedAt": "2018-10-21T09:18:36.131Z"
}