{
  "contractName": "UserID",
  "abi": [
    {
      "constant": true,
      "inputs": [],
      "name": "UID_Count",
      "outputs": [
        {
          "name": "",
          "type": "uint256"
        }
      ],
      "payable": false,
      "stateMutability": "view",
      "type": "function"
    },
    {
      "constant": true,
      "inputs": [
        {
          "name": "",
          "type": "uint256"
        }
      ],
      "name": "UID_Map",
      "outputs": [
        {
          "name": "driverId",
          "type": "uint256"
        },
        {
          "name": "fullName",
          "type": "string"
        },
        {
          "name": "dob",
          "type": "string"
        },
        {
          "name": "driverId_endDate",
          "type": "string"
        },
        {
          "name": "numOfInfractions",
          "type": "uint256"
        },
        {
          "name": "passportId",
          "type": "uint256"
        }
      ],
      "payable": false,
      "stateMutability": "view",
      "type": "function"
    },
    {
      "inputs": [],
      "payable": false,
      "stateMutability": "nonpayable",
      "type": "constructor"
    }
  ],
  "bytecode": "0x608060405234801561001057600080fd5b506100d16001546040805190810160405280600981526020017f416972777265636b6100000000000000000000000000000000000000000000008152506040805190810160405280600a81526020017f30312f30322f31393933000000000000000000000000000000000000000000008152506040805190810160405280600a81526020017f32302f30322f3230333000000000000000000000000000000000000000000000815250600c60006100d6640100000000026401000000009004565b610251565b60016000815480929190600101919050555060c06040519081016040528060015481526020018681526020018581526020018481526020018381526020018281525060008060015481526020019081526020016000206000820151816000015560208201518160010190805190602001906101529291906101ac565b50604082015181600201908051906020019061016f9291906101ac565b50606082015181600301908051906020019061018c9291906101ac565b506080820151816004015560a08201518160050155905050505050505050565b828054600181600116156101000203166002900490600052602060002090601f016020900481019282601f106101ed57805160ff191683800117855561021b565b8280016001018555821561021b579182015b8281111561021a5782518255916020019190600101906101ff565b5b509050610228919061022c565b5090565b61024e91905b8082111561024a576000816000905550600101610232565b5090565b90565b610445806102606000396000f30060806040526004361061004c576000357c0100000000000000000000000000000000000000000000000000000000900463ffffffff16806333f40e0d14610051578063e6217c3b1461007c575b600080fd5b34801561005d57600080fd5b5061006661020f565b6040518082815260200191505060405180910390f35b34801561008857600080fd5b506100a760048036038101908080359060200190929190505050610215565b60405180878152602001806020018060200180602001868152602001858152602001848103845289818151815260200191508051906020019080838360005b838110156101015780820151818401526020810190506100e6565b50505050905090810190601f16801561012e5780820380516001836020036101000a031916815260200191505b50848103835288818151815260200191508051906020019080838360005b8381101561016757808201518184015260208101905061014c565b50505050905090810190601f1680156101945780820380516001836020036101000a031916815260200191505b50848103825287818151815260200191508051906020019080838360005b838110156101cd5780820151818401526020810190506101b2565b50505050905090810190601f1680156101fa5780820380516001836020036101000a031916815260200191505b50995050505050505050505060405180910390f35b60015481565b6000602052806000526040600020600091509050806000015490806001018054600181600116156101000203166002900480601f0160208091040260200160405190810160405280929190818152602001828054600181600116156101000203166002900480156102c75780601f1061029c576101008083540402835291602001916102c7565b820191906000526020600020905b8154815290600101906020018083116102aa57829003601f168201915b505050505090806002018054600181600116156101000203166002900480601f0160208091040260200160405190810160405280929190818152602001828054600181600116156101000203166002900480156103655780601f1061033a57610100808354040283529160200191610365565b820191906000526020600020905b81548152906001019060200180831161034857829003601f168201915b505050505090806003018054600181600116156101000203166002900480601f0160208091040260200160405190810160405280929190818152602001828054600181600116156101000203166002900480156104035780601f106103d857610100808354040283529160200191610403565b820191906000526020600020905b8154815290600101906020018083116103e657829003601f168201915b50505050509080600401549080600501549050865600a165627a7a723058206db37fceba28e4db2602bb953d17104b5fa3b88ea388943dd6514eba066f5ce30029",
  "source": "pragma solidity 0.4.24;\r\n\r\ncontract UserID {\r\n    // Read/write candidate\r\n\r\n    //Model of UserID\r\n    struct UID_Struct {\r\n      uint driverId;\r\n      string fullName;\r\n      string dob;\r\n      string driverId_endDate;\r\n      uint numOfInfractions;\r\n      uint passportId;\r\n\r\n    }\r\n\r\n    // Array type that stores UID struct type with uint value type as key value(driverId /or id#)\r\n    mapping(uint => UID_Struct) public UID_Map; //solidity generates UID function for us.\r\n    // Constructor\r\n\r\n    //Keep track UID's made because you cannot iterate over or count how many elements in a mapping\r\n    uint public UID_Count;\r\n\r\n    //function to add candidates\r\n    function addUID (uint id, string _name, string _dob, string _exp_date, uint _infractions, uint _passID) private { // _ underscore shows variable is local instead of state\r\n      UID_Count++;\r\n      UID_Map[UID_Count] = UID_Struct(UID_Count, _name, _dob, _exp_date, _infractions, _passID);\r\n    }\r\n\r\n    function UserID () public {\r\n      addUID(UID_Count,\"Airwrecka\", \"01/02/1993\", \"20/02/2030\", 12, 0);\r\n    }\r\n\r\n}\r\n",
  "sourcePath": "C:\\Users\\tamuk\\Desktop\\UID\\contracts\\UserID.sol",
  "compiler": {
    "name": "solc",
    "version": "0.4.24+commit.e67f0147.Emscripten.clang"
  },
  "schemaVersion": "2.0.1",
  "updatedAt": "2018-10-21T02:31:36.553Z"
}